{
  "_format": "hh3-artifact-1",
  "contractName": "SkillStamp",
  "sourceName": "contracts/SkillStamp.sol",
  "abi": [
    {
      "anonymous": false,
      "inputs": [
        {
          "indexed": true,
          "internalType": "uint256",
          "name": "tokenId",
          "type": "uint256"
        },
        {
          "indexed": true,
          "internalType": "uint256",
          "name": "quizId",
          "type": "uint256"
        },
        {
          "indexed": true,
          "internalType": "address",
          "name": "learner",
          "type": "address"
        },
        {
          "indexed": false,
          "internalType": "uint8",
          "name": "score",
          "type": "uint8"
        },
        {
          "indexed": false,
          "internalType": "string",
          "name": "skill",
          "type": "string"
        },
        {
          "indexed": false,
          "internalType": "address",
          "name": "issuer",
          "type": "address"
        }
      ],
      "name": "CertificateMinted",
      "type": "event"
    },
    {
      "anonymous": false,
      "inputs": [
        {
          "indexed": true,
          "internalType": "uint256",
          "name": "quizId",
          "type": "uint256"
        },
        {
          "indexed": true,
          "internalType": "address",
          "name": "issuer",
          "type": "address"
        },
        {
          "indexed": false,
          "internalType": "string",
          "name": "title",
          "type": "string"
        },
        {
          "indexed": false,
          "internalType": "string",
          "name": "skill",
          "type": "string"
        }
      ],
      "name": "QuizCreated",
      "type": "event"
    },
    {
      "anonymous": false,
      "inputs": [
        {
          "indexed": true,
          "internalType": "address",
          "name": "from",
          "type": "address"
        },
        {
          "indexed": true,
          "internalType": "address",
          "name": "to",
          "type": "address"
        },
        {
          "indexed": true,
          "internalType": "uint256",
          "name": "tokenId",
          "type": "uint256"
        }
      ],
      "name": "Transfer",
      "type": "event"
    },
    {
      "inputs": [
        {
          "internalType": "uint256",
          "name": "",
          "type": "uint256"
        }
      ],
      "name": "certificates",
      "outputs": [
        {
          "internalType": "uint256",
          "name": "tokenId",
          "type": "uint256"
        },
        {
          "internalType": "uint256",
          "name": "quizId",
          "type": "uint256"
        },
        {
          "internalType": "address",
          "name": "learner",
          "type": "address"
        },
        {
          "internalType": "uint8",
          "name": "score",
          "type": "uint8"
        },
        {
          "internalType": "uint256",
          "name": "issuedAt",
          "type": "uint256"
        },
        {
          "internalType": "string",
          "name": "skill",
          "type": "string"
        },
        {
          "internalType": "string",
          "name": "quizTitle",
          "type": "string"
        },
        {
          "internalType": "address",
          "name": "issuer",
          "type": "address"
        }
      ],
      "stateMutability": "view",
      "type": "function"
    },
    {
      "inputs": [
        {
          "internalType": "string",
          "name": "title",
          "type": "string"
        },
        {
          "internalType": "string",
          "name": "skill",
          "type": "string"
        },
        {
          "internalType": "string",
          "name": "questionsJson",
          "type": "string"
        },
        {
          "internalType": "uint8",
          "name": "passingScore",
          "type": "uint8"
        }
      ],
      "name": "createQuiz",
      "outputs": [
        {
          "internalType": "uint256",
          "name": "",
          "type": "uint256"
        }
      ],
      "stateMutability": "nonpayable",
      "type": "function"
    },
    {
      "inputs": [],
      "name": "getAllQuizzes",
      "outputs": [
        {
          "components": [
            {
              "internalType": "uint256",
              "name": "id",
              "type": "uint256"
            },
            {
              "internalType": "address",
              "name": "issuer",
              "type": "address"
            },
            {
              "internalType": "string",
              "name": "title",
              "type": "string"
            },
            {
              "internalType": "string",
              "name": "skill",
              "type": "string"
            },
            {
              "internalType": "string",
              "name": "questionsJson",
              "type": "string"
            },
            {
              "internalType": "uint8",
              "name": "passingScore",
              "type": "uint8"
            },
            {
              "internalType": "bool",
              "name": "active",
              "type": "bool"
            },
            {
              "internalType": "uint256",
              "name": "createdAt",
              "type": "uint256"
            }
          ],
          "internalType": "struct SkillStamp.Quiz[]",
          "name": "",
          "type": "tuple[]"
        }
      ],
      "stateMutability": "view",
      "type": "function"
    },
    {
      "inputs": [
        {
          "internalType": "address",
          "name": "issuer",
          "type": "address"
        }
      ],
      "name": "getIssuerQuizzes",
      "outputs": [
        {
          "internalType": "uint256[]",
          "name": "",
          "type": "uint256[]"
        }
      ],
      "stateMutability": "view",
      "type": "function"
    },
    {
      "inputs": [
        {
          "internalType": "address",
          "name": "learner",
          "type": "address"
        }
      ],
      "name": "getLearnerCertificates",
      "outputs": [
        {
          "internalType": "uint256[]",
          "name": "",
          "type": "uint256[]"
        }
      ],
      "stateMutability": "view",
      "type": "function"
    },
    {
      "inputs": [
        {
          "internalType": "uint256",
          "name": "quizId",
          "type": "uint256"
        }
      ],
      "name": "getQuizLeaderboard",
      "outputs": [
        {
          "components": [
            {
              "internalType": "uint256",
              "name": "tokenId",
              "type": "uint256"
            },
            {
              "internalType": "uint256",
              "name": "quizId",
              "type": "uint256"
            },
            {
              "internalType": "address",
              "name": "learner",
              "type": "address"
            },
            {
              "internalType": "uint8",
              "name": "score",
              "type": "uint8"
            },
            {
              "internalType": "uint256",
              "name": "issuedAt",
              "type": "uint256"
            },
            {
              "internalType": "string",
              "name": "skill",
              "type": "string"
            },
            {
              "internalType": "string",
              "name": "quizTitle",
              "type": "string"
            },
            {
              "internalType": "address",
              "name": "issuer",
              "type": "address"
            }
          ],
          "internalType": "struct SkillStamp.Certificate[]",
          "name": "",
          "type": "tuple[]"
        }
      ],
      "stateMutability": "view",
      "type": "function"
    },
    {
      "inputs": [
        {
          "internalType": "address",
          "name": "",
          "type": "address"
        },
        {
          "internalType": "uint256",
          "name": "",
          "type": "uint256"
        }
      ],
      "name": "learnerCertificate",
      "outputs": [
        {
          "internalType": "uint256",
          "name": "",
          "type": "uint256"
        }
      ],
      "stateMutability": "view",
      "type": "function"
    },
    {
      "inputs": [
        {
          "internalType": "uint256",
          "name": "quizId",
          "type": "uint256"
        },
        {
          "internalType": "uint8",
          "name": "score",
          "type": "uint8"
        },
        {
          "internalType": "bytes",
          "name": "issuerSignature",
          "type": "bytes"
        }
      ],
      "name": "mintCertificate",
      "outputs": [],
      "stateMutability": "nonpayable",
      "type": "function"
    },
    {
      "inputs": [],
      "name": "name",
      "outputs": [
        {
          "internalType": "string",
          "name": "",
          "type": "string"
        }
      ],
      "stateMutability": "view",
      "type": "function"
    },
    {
      "inputs": [
        {
          "internalType": "uint256",
          "name": "tokenId",
          "type": "uint256"
        }
      ],
      "name": "ownerOf",
      "outputs": [
        {
          "internalType": "address",
          "name": "",
          "type": "address"
        }
      ],
      "stateMutability": "view",
      "type": "function"
    },
    {
      "inputs": [
        {
          "internalType": "uint256",
          "name": "",
          "type": "uint256"
        }
      ],
      "name": "quizzes",
      "outputs": [
        {
          "internalType": "uint256",
          "name": "id",
          "type": "uint256"
        },
        {
          "internalType": "address",
          "name": "issuer",
          "type": "address"
        },
        {
          "internalType": "string",
          "name": "title",
          "type": "string"
        },
        {
          "internalType": "string",
          "name": "skill",
          "type": "string"
        },
        {
          "internalType": "string",
          "name": "questionsJson",
          "type": "string"
        },
        {
          "internalType": "uint8",
          "name": "passingScore",
          "type": "uint8"
        },
        {
          "internalType": "bool",
          "name": "active",
          "type": "bool"
        },
        {
          "internalType": "uint256",
          "name": "createdAt",
          "type": "uint256"
        }
      ],
      "stateMutability": "view",
      "type": "function"
    },
    {
      "inputs": [
        {
          "internalType": "address",
          "name": "",
          "type": "address"
        },
        {
          "internalType": "address",
          "name": "",
          "type": "address"
        },
        {
          "internalType": "uint256",
          "name": "",
          "type": "uint256"
        }
      ],
      "name": "safeTransferFrom",
      "outputs": [],
      "stateMutability": "pure",
      "type": "function"
    },
    {
      "inputs": [],
      "name": "symbol",
      "outputs": [
        {
          "internalType": "string",
          "name": "",
          "type": "string"
        }
      ],
      "stateMutability": "view",
      "type": "function"
    },
    {
      "inputs": [
        {
          "internalType": "uint256",
          "name": "quizId",
          "type": "uint256"
        }
      ],
      "name": "toggleQuiz",
      "outputs": [],
      "stateMutability": "nonpayable",
      "type": "function"
    },
    {
      "inputs": [],
      "name": "totalCertificates",
      "outputs": [
        {
          "internalType": "uint256",
          "name": "",
          "type": "uint256"
        }
      ],
      "stateMutability": "view",
      "type": "function"
    },
    {
      "inputs": [],
      "name": "totalQuizzes",
      "outputs": [
        {
          "internalType": "uint256",
          "name": "",
          "type": "uint256"
        }
      ],
      "stateMutability": "view",
      "type": "function"
    },
    {
      "inputs": [
        {
          "internalType": "address",
          "name": "",
          "type": "address"
        },
        {
          "internalType": "address",
          "name": "",
          "type": "address"
        },
        {
          "internalType": "uint256",
          "name": "",
          "type": "uint256"
        }
      ],
      "name": "transferFrom",
      "outputs": [],
      "stateMutability": "pure",
      "type": "function"
    }
  ],
  "bytecode": "0x60806040526040518060400160405280601681526020017f536b696c6c5374616d70204365727469666963617465000000000000000000008152505f908162000049919062000308565b506040518060400160405280600681526020017f53534b494c4c00000000000000000000000000000000000000000000000000008152506001908162000090919062000308565b503480156200009d575f80fd5b50620003ec565b5f81519050919050565b7f4e487b71000000000000000000000000000000000000000000000000000000005f52604160045260245ffd5b7f4e487b71000000000000000000000000000000000000000000000000000000005f52602260045260245ffd5b5f60028204905060018216806200012057607f821691505b602082108103620001365762000135620000db565b5b50919050565b5f819050815f5260205f209050919050565b5f6020601f8301049050919050565b5f82821b905092915050565b5f600883026200019a7fffffffffffffffffffffffffffffffffffffffffffffffffffffffffffffffff826200015d565b620001a686836200015d565b95508019841693508086168417925050509392505050565b5f819050919050565b5f819050919050565b5f620001f0620001ea620001e484620001be565b620001c7565b620001be565b9050919050565b5f819050919050565b6200020b83620001d0565b620002236200021a82620001f7565b84845462000169565b825550505050565b5f90565b620002396200022b565b6200024681848462000200565b505050565b5b818110156200026d57620002615f826200022f565b6001810190506200024c565b5050565b601f821115620002bc5762000286816200013c565b62000291846200014e565b81016020851015620002a1578190505b620002b9620002b0856200014e565b8301826200024b565b50505b505050565b5f82821c905092915050565b5f620002de5f1984600802620002c1565b1980831691505092915050565b5f620002f88383620002cd565b9150826002028217905092915050565b6200031382620000a4565b67ffffffffffffffff8111156200032f576200032e620000ae565b5b6200033b825462000108565b6200034882828562000271565b5f60209050601f8311600181146200037e575f841562000369578287015190505b620003758582620002eb565b865550620003e4565b601f1984166200038e866200013c565b5f5b82811015620003b75784890151825560018201915060208501945060208101905062000390565b86831015620003d75784890151620003d3601f891682620002cd565b8355505b6001600288020188555050505b505050505050565b61367180620003fa5f395ff3fe608060405234801561000f575f80fd5b5060043610610109575f3560e01c8063663b3e22116100a05780638ae0890e1161006f5780638ae0890e146102c357806395d89b41146102f3578063aab5a3a114610311578063e8e5b3cd14610341578063fc247a3e1461037157610109565b8063663b3e221461021b5780636a4af0fa1461025257806388409afa146102705780638a05730c146102a757610109565b806342842e0e116100dc57806342842e0e14610181578063596b772f1461019d5780636352211e146101bb57806364529562146101eb57610109565b806306fdde031461010d57806323b872dd1461012b5780632e8c19af14610147578063316701c214610163575b5f80fd5b6101156103a1565b6040516101229190612059565b60405180910390f35b6101456004803603810190610140919061210e565b61042c565b005b610161600480360381019061015c919061215e565b610467565b005b61016b6105ab565b6040516101789190612198565b60405180910390f35b61019b6004803603810190610196919061210e565b6105b4565b005b6101a56105ef565b6040516101b29190612198565b60405180910390f35b6101d560048036038101906101d0919061215e565b6105f8565b6040516101e291906121c0565b60405180910390f35b61020560048036038101906102009190612270565b6106cf565b6040516102129190612198565b60405180910390f35b6102356004803603810190610230919061215e565b610a90565b604051610249989796959493929190612343565b60405180910390f35b61025a610c2b565b60405161026791906125d2565b60405180910390f35b61028a6004803603810190610285919061215e565b610f46565b60405161029e989796959493929190612601565b60405180910390f35b6102c160048036038101906102bc91906126e7565b611154565b005b6102dd60048036038101906102d89190612758565b611919565b6040516102ea919061282b565b60405180910390f35b6102fb6119ac565b6040516103089190612059565b60405180910390f35b61032b6004803603810190610326919061215e565b611a38565b60405161033891906129ba565b60405180910390f35b61035b60048036038101906103569190612758565b611d81565b604051610368919061282b565b60405180910390f35b61038b600480360381019061038691906129da565b611e14565b6040516103989190612198565b60405180910390f35b5f80546103ad90612a45565b80601f01602080910402602001604051908101604052809291908181526020018280546103d990612a45565b80156104245780601f106103fb57610100808354040283529160200191610424565b820191905f5260205f20905b81548152906001019060200180831161040757829003601f168201915b505050505081565b6040517f08c379a000000000000000000000000000000000000000000000000000000000815260040161045e90612ae5565b60405180910390fd5b805f8111801561047957506002548111155b6104b8576040517f08c379a00000000000000000000000000000000000000000000000000000000081526004016104af90612b4d565b60405180910390fd5b3373ffffffffffffffffffffffffffffffffffffffff1660045f8481526020019081526020015f206001015f9054906101000a900473ffffffffffffffffffffffffffffffffffffffff1673ffffffffffffffffffffffffffffffffffffffff1614610559576040517f08c379a000000000000000000000000000000000000000000000000000000000815260040161055090612bb5565b60405180910390fd5b60045f8381526020019081526020015f2060050160019054906101000a900460ff161560045f8481526020019081526020015f2060050160016101000a81548160ff0219169083151502179055505050565b5f600254905090565b6040517f08c379a00000000000000000000000000000000000000000000000000000000081526004016105e690612ae5565b60405180910390fd5b5f600354905090565b5f8073ffffffffffffffffffffffffffffffffffffffff1660085f8481526020019081526020015f205f9054906101000a900473ffffffffffffffffffffffffffffffffffffffff1673ffffffffffffffffffffffffffffffffffffffff1603610697576040517f08c379a000000000000000000000000000000000000000000000000000000000815260040161068e90612c1d565b60405180910390fd5b60085f8381526020019081526020015f205f9054906101000a900473ffffffffffffffffffffffffffffffffffffffff169050919050565b5f808888905011610715576040517f08c379a000000000000000000000000000000000000000000000000000000000815260040161070c90612c85565b60405180910390fd5b5f868690501161075a576040517f08c379a000000000000000000000000000000000000000000000000000000000815260040161075190612ced565b60405180910390fd5b60648260ff1611156107a1576040517f08c379a000000000000000000000000000000000000000000000000000000000815260040161079890612d55565b60405180910390fd5b60025f8154809291906107b390612da0565b91905055505f60025490506040518061010001604052808281526020013373ffffffffffffffffffffffffffffffffffffffff1681526020018a8a8080601f0160208091040260200160405190810160405280939291908181526020018383808284375f81840152601f19601f82011690508083019250505050505050815260200188888080601f0160208091040260200160405190810160405280939291908181526020018383808284375f81840152601f19601f82011690508083019250505050505050815260200186868080601f0160208091040260200160405190810160405280939291908181526020018383808284375f81840152601f19601f8201169050808301925050505050505081526020018460ff1681526020016001151581526020014281525060045f8381526020019081526020015f205f820151815f01556020820151816001015f6101000a81548173ffffffffffffffffffffffffffffffffffffffff021916908373ffffffffffffffffffffffffffffffffffffffff16021790555060408201518160020190816109519190612fb1565b5060608201518160030190816109679190612fb1565b50608082015181600401908161097d9190612fb1565b5060a0820151816005015f6101000a81548160ff021916908360ff16021790555060c08201518160050160016101000a81548160ff02191690831515021790555060e08201518160060155905050600a5f3373ffffffffffffffffffffffffffffffffffffffff1673ffffffffffffffffffffffffffffffffffffffff1681526020019081526020015f2081908060018154018082558091505060019003905f5260205f20015f90919091909150553373ffffffffffffffffffffffffffffffffffffffff16817f1ce718207e286bdf0404fc6830f241ed429e3bfb0ece2ea9adac8887c49bc8158b8b8b8b604051610a7994939291906130ba565b60405180910390a380915050979650505050505050565b6005602052805f5260405f205f91509050805f015490806001015490806002015f9054906101000a900473ffffffffffffffffffffffffffffffffffffffff16908060020160149054906101000a900460ff1690806003015490806004018054610af990612a45565b80601f0160208091040260200160405190810160405280929190818152602001828054610b2590612a45565b8015610b705780601f10610b4757610100808354040283529160200191610b70565b820191905f5260205f20905b815481529060010190602001808311610b5357829003601f168201915b505050505090806005018054610b8590612a45565b80601f0160208091040260200160405190810160405280929190818152602001828054610bb190612a45565b8015610bfc5780601f10610bd357610100808354040283529160200191610bfc565b820191905f5260205f20905b815481529060010190602001808311610bdf57829003601f168201915b505050505090806006015f9054906101000a900473ffffffffffffffffffffffffffffffffffffffff16905088565b60605f60025467ffffffffffffffff811115610c4a57610c49612de7565b5b604051908082528060200260200182016040528015610c8357816020015b610c70611f06565b815260200190600190039081610c685790505b5090505f600190505b6002548111610f3e5760045f8281526020019081526020015f20604051806101000160405290815f8201548152602001600182015f9054906101000a900473ffffffffffffffffffffffffffffffffffffffff1673ffffffffffffffffffffffffffffffffffffffff1673ffffffffffffffffffffffffffffffffffffffff168152602001600282018054610d2090612a45565b80601f0160208091040260200160405190810160405280929190818152602001828054610d4c90612a45565b8015610d975780601f10610d6e57610100808354040283529160200191610d97565b820191905f5260205f20905b815481529060010190602001808311610d7a57829003601f168201915b50505050508152602001600382018054610db090612a45565b80601f0160208091040260200160405190810160405280929190818152602001828054610ddc90612a45565b8015610e275780601f10610dfe57610100808354040283529160200191610e27565b820191905f5260205f20905b815481529060010190602001808311610e0a57829003601f168201915b50505050508152602001600482018054610e4090612a45565b80601f0160208091040260200160405190810160405280929190818152602001828054610e6c90612a45565b8015610eb75780601f10610e8e57610100808354040283529160200191610eb7565b820191905f5260205f20905b815481529060010190602001808311610e9a57829003601f168201915b50505050508152602001600582015f9054906101000a900460ff1660ff1660ff1681526020016005820160019054906101000a900460ff1615151515815260200160068201548152505082600183610f0f91906130f3565b81518110610f2057610f1f613126565b5b60200260200101819052508080610f3690612da0565b915050610c8c565b508091505090565b6004602052805f5260405f205f91509050805f015490806001015f9054906101000a900473ffffffffffffffffffffffffffffffffffffffff1690806002018054610f9090612a45565b80601f0160208091040260200160405190810160405280929190818152602001828054610fbc90612a45565b80156110075780601f10610fde57610100808354040283529160200191611007565b820191905f5260205f20905b815481529060010190602001808311610fea57829003601f168201915b50505050509080600301805461101c90612a45565b80601f016020809104026020016040519081016040528092919081815260200182805461104890612a45565b80156110935780601f1061106a57610100808354040283529160200191611093565b820191905f5260205f20905b81548152906001019060200180831161107657829003601f168201915b5050505050908060040180546110a890612a45565b80601f01602080910402602001604051908101604052809291908181526020018280546110d490612a45565b801561111f5780601f106110f65761010080835404028352916020019161111f565b820191905f5260205f20905b81548152906001019060200180831161110257829003601f168201915b505050505090806005015f9054906101000a900460ff16908060050160019054906101000a900460ff16908060060154905088565b835f8111801561116657506002548111155b6111a5576040517f08c379a000000000000000000000000000000000000000000000000000000000815260040161119c90612b4d565b60405180910390fd5b8460045f8281526020019081526020015f2060050160019054906101000a900460ff16611207576040517f08c379a00000000000000000000000000000000000000000000000000000000081526004016111fe9061319d565b60405180910390fd5b5f60065f3373ffffffffffffffffffffffffffffffffffffffff1673ffffffffffffffffffffffffffffffffffffffff1681526020019081526020015f205f8881526020019081526020015f205414611295576040517f08c379a000000000000000000000000000000000000000000000000000000000815260040161128c9061322b565b60405180910390fd5b5f60045f8881526020019081526020015f209050806005015f9054906101000a900460ff1660ff168660ff161015611302576040517f08c379a00000000000000000000000000000000000000000000000000000000081526004016112f990613293565b60405180910390fd5b5f3388886040516020016113189392919061334a565b6040516020818303038152906040528051906020012090505f816040516020016113429190613403565b6040516020818303038152906040528051906020012090505f6113a88289898080601f0160208091040260200160405190810160405280939291908181526020018383808284375f81840152601f19601f82011690508083019250505050505050611e34565b9050836001015f9054906101000a900473ffffffffffffffffffffffffffffffffffffffff1673ffffffffffffffffffffffffffffffffffffffff168173ffffffffffffffffffffffffffffffffffffffff161461143b576040517f08c379a000000000000000000000000000000000000000000000000000000000815260040161143290613472565b60405180910390fd5b60035f81548092919061144d90612da0565b91905055505f60035490506040518061010001604052808281526020018c81526020013373ffffffffffffffffffffffffffffffffffffffff1681526020018b60ff1681526020014281526020018660030180546114aa90612a45565b80601f01602080910402602001604051908101604052809291908181526020018280546114d690612a45565b80156115215780601f106114f857610100808354040283529160200191611521565b820191905f5260205f20905b81548152906001019060200180831161150457829003601f168201915b5050505050815260200186600201805461153a90612a45565b80601f016020809104026020016040519081016040528092919081815260200182805461156690612a45565b80156115b15780601f10611588576101008083540402835291602001916115b1565b820191905f5260205f20905b81548152906001019060200180831161159457829003601f168201915b50505050508152602001866001015f9054906101000a900473ffffffffffffffffffffffffffffffffffffffff1673ffffffffffffffffffffffffffffffffffffffff1681525060055f8381526020019081526020015f205f820151815f0155602082015181600101556040820151816002015f6101000a81548173ffffffffffffffffffffffffffffffffffffffff021916908373ffffffffffffffffffffffffffffffffffffffff16021790555060608201518160020160146101000a81548160ff021916908360ff1602179055506080820151816003015560a08201518160040190816116a19190612fb1565b5060c08201518160050190816116b79190612fb1565b5060e0820151816006015f6101000a81548173ffffffffffffffffffffffffffffffffffffffff021916908373ffffffffffffffffffffffffffffffffffffffff1602179055509050503360085f8381526020019081526020015f205f6101000a81548173ffffffffffffffffffffffffffffffffffffffff021916908373ffffffffffffffffffffffffffffffffffffffff1602179055508060065f3373ffffffffffffffffffffffffffffffffffffffff1673ffffffffffffffffffffffffffffffffffffffff1681526020019081526020015f205f8d81526020019081526020015f208190555060075f3373ffffffffffffffffffffffffffffffffffffffff1673ffffffffffffffffffffffffffffffffffffffff1681526020019081526020015f2081908060018154018082558091505060019003905f5260205f20015f909190919091505560095f8c81526020019081526020015f2081908060018154018082558091505060019003905f5260205f20015f9091909190915055803373ffffffffffffffffffffffffffffffffffffffff165f73ffffffffffffffffffffffffffffffffffffffff167fddf252ad1be2c89b69c2b068fc378daa952ba7f163c4a11628f55a4df523b3ef60405160405180910390a43373ffffffffffffffffffffffffffffffffffffffff168b827fb37bc8ef288b55806e2638e995af80edd08b2238076aac8b3d55d059ca819b5c8d896003018a6001015f9054906101000a900473ffffffffffffffffffffffffffffffffffffffff1660405161190493929190613511565b60405180910390a45050505050505050505050565b606060075f8373ffffffffffffffffffffffffffffffffffffffff1673ffffffffffffffffffffffffffffffffffffffff1681526020019081526020015f208054806020026020016040519081016040528092919081815260200182805480156119a057602002820191905f5260205f20905b81548152602001906001019080831161198c575b50505050509050919050565b600180546119b990612a45565b80601f01602080910402602001604051908101604052809291908181526020018280546119e590612a45565b8015611a305780601f10611a0757610100808354040283529160200191611a30565b820191905f5260205f20905b815481529060010190602001808311611a1357829003601f168201915b505050505081565b6060815f81118015611a4c57506002548111155b611a8b576040517f08c379a0000000000000000000000000000000000000000000000000000000008152600401611a8290612b4d565b60405180910390fd5b5f60095f8581526020019081526020015f2090505f818054905067ffffffffffffffff811115611abe57611abd612de7565b5b604051908082528060200260200182016040528015611af757816020015b611ae4611f61565b815260200190600190039081611adc5790505b5090505f5b8280549050811015611d755760055f848381548110611b1e57611b1d613126565b5b905f5260205f20015481526020019081526020015f20604051806101000160405290815f820154815260200160018201548152602001600282015f9054906101000a900473ffffffffffffffffffffffffffffffffffffffff1673ffffffffffffffffffffffffffffffffffffffff1673ffffffffffffffffffffffffffffffffffffffff1681526020016002820160149054906101000a900460ff1660ff1660ff16815260200160038201548152602001600482018054611bdf90612a45565b80601f0160208091040260200160405190810160405280929190818152602001828054611c0b90612a45565b8015611c565780601f10611c2d57610100808354040283529160200191611c56565b820191905f5260205f20905b815481529060010190602001808311611c3957829003601f168201915b50505050508152602001600582018054611c6f90612a45565b80601f0160208091040260200160405190810160405280929190818152602001828054611c9b90612a45565b8015611ce65780601f10611cbd57610100808354040283529160200191611ce6565b820191905f5260205f20905b815481529060010190602001808311611cc957829003601f168201915b50505050508152602001600682015f9054906101000a900473ffffffffffffffffffffffffffffffffffffffff1673ffffffffffffffffffffffffffffffffffffffff1673ffffffffffffffffffffffffffffffffffffffff1681525050828281518110611d5757611d56613126565b5b60200260200101819052508080611d6d90612da0565b915050611afc565b50809350505050919050565b6060600a5f8373ffffffffffffffffffffffffffffffffffffffff1673ffffffffffffffffffffffffffffffffffffffff1681526020019081526020015f20805480602002602001604051908101604052809291908181526020018280548015611e0857602002820191905f5260205f20905b815481526020019060010190808311611df4575b50505050509050919050565b6006602052815f5260405f20602052805f5260405f205f91509150505481565b5f6041825114611e79576040517f08c379a0000000000000000000000000000000000000000000000000000000008152600401611e7090613597565b60405180910390fd5b5f805f602085015192506040850151915060608501515f1a9050601b8160ff161015611eaf57601b81611eac91906135b5565b90505b6001868285856040515f8152602001604052604051611ed194939291906135f8565b6020604051602081039080840390855afa158015611ef1573d5f803e3d5ffd5b50505060206040510351935050505092915050565b6040518061010001604052805f81526020015f73ffffffffffffffffffffffffffffffffffffffff1681526020016060815260200160608152602001606081526020015f60ff1681526020015f151581526020015f81525090565b6040518061010001604052805f81526020015f81526020015f73ffffffffffffffffffffffffffffffffffffffff1681526020015f60ff1681526020015f815260200160608152602001606081526020015f73ffffffffffffffffffffffffffffffffffffffff1681525090565b5f81519050919050565b5f82825260208201905092915050565b5f5b83811015612006578082015181840152602081019050611feb565b5f8484015250505050565b5f601f19601f8301169050919050565b5f61202b82611fcf565b6120358185611fd9565b9350612045818560208601611fe9565b61204e81612011565b840191505092915050565b5f6020820190508181035f8301526120718184612021565b905092915050565b5f80fd5b5f80fd5b5f73ffffffffffffffffffffffffffffffffffffffff82169050919050565b5f6120aa82612081565b9050919050565b6120ba816120a0565b81146120c4575f80fd5b50565b5f813590506120d5816120b1565b92915050565b5f819050919050565b6120ed816120db565b81146120f7575f80fd5b50565b5f81359050612108816120e4565b92915050565b5f805f6060848603121561212557612124612079565b5b5f612132868287016120c7565b9350506020612143868287016120c7565b9250506040612154868287016120fa565b9150509250925092565b5f6020828403121561217357612172612079565b5b5f612180848285016120fa565b91505092915050565b612192816120db565b82525050565b5f6020820190506121ab5f830184612189565b92915050565b6121ba816120a0565b82525050565b5f6020820190506121d35f8301846121b1565b92915050565b5f80fd5b5f80fd5b5f80fd5b5f8083601f8401126121fa576121f96121d9565b5b8235905067ffffffffffffffff811115612217576122166121dd565b5b602083019150836001820283011115612233576122326121e1565b5b9250929050565b5f60ff82169050919050565b61224f8161223a565b8114612259575f80fd5b50565b5f8135905061226a81612246565b92915050565b5f805f805f805f6080888a03121561228b5761228a612079565b5b5f88013567ffffffffffffffff8111156122a8576122a761207d565b5b6122b48a828b016121e5565b9750975050602088013567ffffffffffffffff8111156122d7576122d661207d565b5b6122e38a828b016121e5565b9550955050604088013567ffffffffffffffff8111156123065761230561207d565b5b6123128a828b016121e5565b935093505060606123258a828b0161225c565b91505092959891949750929550565b61233d8161223a565b82525050565b5f610100820190506123575f83018b612189565b612364602083018a612189565b61237160408301896121b1565b61237e6060830188612334565b61238b6080830187612189565b81810360a083015261239d8186612021565b905081810360c08301526123b18185612021565b90506123c060e08301846121b1565b9998505050505050505050565b5f81519050919050565b5f82825260208201905092915050565b5f819050602082019050919050565b6123ff816120db565b82525050565b61240e816120a0565b82525050565b5f82825260208201905092915050565b5f61242e82611fcf565b6124388185612414565b9350612448818560208601611fe9565b61245181612011565b840191505092915050565b6124658161223a565b82525050565b5f8115159050919050565b61247f8161246b565b82525050565b5f61010083015f83015161249b5f8601826123f6565b5060208301516124ae6020860182612405565b50604083015184820360408601526124c68282612424565b915050606083015184820360608601526124e08282612424565b915050608083015184820360808601526124fa8282612424565b91505060a083015161250f60a086018261245c565b5060c083015161252260c0860182612476565b5060e083015161253560e08601826123f6565b508091505092915050565b5f61254b8383612485565b905092915050565b5f602082019050919050565b5f612569826123cd565b61257381856123d7565b935083602082028501612585856123e7565b805f5b858110156125c057848403895281516125a18582612540565b94506125ac83612553565b925060208a01995050600181019050612588565b50829750879550505050505092915050565b5f6020820190508181035f8301526125ea818461255f565b905092915050565b6125fb8161246b565b82525050565b5f610100820190506126155f83018b612189565b612622602083018a6121b1565b81810360408301526126348189612021565b905081810360608301526126488188612021565b9050818103608083015261265c8187612021565b905061266b60a0830186612334565b61267860c08301856125f2565b61268560e0830184612189565b9998505050505050505050565b5f8083601f8401126126a7576126a66121d9565b5b8235905067ffffffffffffffff8111156126c4576126c36121dd565b5b6020830191508360018202830111156126e0576126df6121e1565b5b9250929050565b5f805f80606085870312156126ff576126fe612079565b5b5f61270c878288016120fa565b945050602061271d8782880161225c565b935050604085013567ffffffffffffffff81111561273e5761273d61207d565b5b61274a87828801612692565b925092505092959194509250565b5f6020828403121561276d5761276c612079565b5b5f61277a848285016120c7565b91505092915050565b5f81519050919050565b5f82825260208201905092915050565b5f819050602082019050919050565b5f6127b783836123f6565b60208301905092915050565b5f602082019050919050565b5f6127d982612783565b6127e3818561278d565b93506127ee8361279d565b805f5b8381101561281e57815161280588826127ac565b9750612810836127c3565b9250506001810190506127f1565b5085935050505092915050565b5f6020820190508181035f83015261284381846127cf565b905092915050565b5f81519050919050565b5f82825260208201905092915050565b5f819050602082019050919050565b5f61010083015f83015161288a5f8601826123f6565b50602083015161289d60208601826123f6565b5060408301516128b06040860182612405565b5060608301516128c3606086018261245c565b5060808301516128d660808601826123f6565b5060a083015184820360a08601526128ee8282612424565b91505060c083015184820360c08601526129088282612424565b91505060e083015161291d60e0860182612405565b508091505092915050565b5f6129338383612874565b905092915050565b5f602082019050919050565b5f6129518261284b565b61295b8185612855565b93508360208202850161296d85612865565b805f5b858110156129a857848403895281516129898582612928565b94506129948361293b565b925060208a01995050600181019050612970565b50829750879550505050505092915050565b5f6020820190508181035f8301526129d28184612947565b905092915050565b5f80604083850312156129f0576129ef612079565b5b5f6129fd858286016120c7565b9250506020612a0e858286016120fa565b9150509250929050565b7f4e487b71000000000000000000000000000000000000000000000000000000005f52602260045260245ffd5b5f6002820490506001821680612a5c57607f821691505b602082108103612a6f57612a6e612a18565b5b50919050565b7f536b696c6c5374616d703a206365727469666963617465732061726520736f755f8201527f6c626f756e6420616e64206e6f6e2d7472616e7366657261626c650000000000602082015250565b5f612acf603b83611fd9565b9150612ada82612a75565b604082019050919050565b5f6020820190508181035f830152612afc81612ac3565b9050919050565b7f5175697a20646f6573206e6f74206578697374000000000000000000000000005f82015250565b5f612b37601383611fd9565b9150612b4282612b03565b602082019050919050565b5f6020820190508181035f830152612b6481612b2b565b9050919050565b7f4e6f74207175697a2069737375657200000000000000000000000000000000005f82015250565b5f612b9f600f83611fd9565b9150612baa82612b6b565b602082019050919050565b5f6020820190508181035f830152612bcc81612b93565b9050919050565b7f546f6b656e20646f6573206e6f742065786973740000000000000000000000005f82015250565b5f612c07601483611fd9565b9150612c1282612bd3565b602082019050919050565b5f6020820190508181035f830152612c3481612bfb565b9050919050565b7f5469746c652072657175697265640000000000000000000000000000000000005f82015250565b5f612c6f600e83611fd9565b9150612c7a82612c3b565b602082019050919050565b5f6020820190508181035f830152612c9c81612c63565b9050919050565b7f536b696c6c2072657175697265640000000000000000000000000000000000005f82015250565b5f612cd7600e83611fd9565b9150612ce282612ca3565b602082019050919050565b5f6020820190508181035f830152612d0481612ccb565b9050919050565b7f50617373696e672073636f7265206d75737420626520302d31303000000000005f82015250565b5f612d3f601b83611fd9565b9150612d4a82612d0b565b602082019050919050565b5f6020820190508181035f830152612d6c81612d33565b9050919050565b7f4e487b71000000000000000000000000000000000000000000000000000000005f52601160045260245ffd5b5f612daa826120db565b91507fffffffffffffffffffffffffffffffffffffffffffffffffffffffffffffffff8203612ddc57612ddb612d73565b5b600182019050919050565b7f4e487b71000000000000000000000000000000000000000000000000000000005f52604160045260245ffd5b5f819050815f5260205f209050919050565b5f6020601f8301049050919050565b5f82821b905092915050565b5f60088302612e707fffffffffffffffffffffffffffffffffffffffffffffffffffffffffffffffff82612e35565b612e7a8683612e35565b95508019841693508086168417925050509392505050565b5f819050919050565b5f612eb5612eb0612eab846120db565b612e92565b6120db565b9050919050565b5f819050919050565b612ece83612e9b565b612ee2612eda82612ebc565b848454612e41565b825550505050565b5f90565b612ef6612eea565b612f01818484612ec5565b505050565b5b81811015612f2457612f195f82612eee565b600181019050612f07565b5050565b601f821115612f6957612f3a81612e14565b612f4384612e26565b81016020851015612f52578190505b612f66612f5e85612e26565b830182612f06565b50505b505050565b5f82821c905092915050565b5f612f895f1984600802612f6e565b1980831691505092915050565b5f612fa18383612f7a565b9150826002028217905092915050565b612fba82611fcf565b67ffffffffffffffff811115612fd357612fd2612de7565b5b612fdd8254612a45565b612fe8828285612f28565b5f60209050601f831160018114613019575f8415613007578287015190505b6130118582612f96565b865550613078565b601f19841661302786612e14565b5f5b8281101561304e57848901518255600182019150602085019450602081019050613029565b8683101561306b5784890151613067601f891682612f7a565b8355505b6001600288020188555050505b505050505050565b828183375f83830152505050565b5f6130998385611fd9565b93506130a6838584613080565b6130af83612011565b840190509392505050565b5f6040820190508181035f8301526130d381868861308e565b905081810360208301526130e881848661308e565b905095945050505050565b5f6130fd826120db565b9150613108836120db565b92508282039050818111156131205761311f612d73565b5b92915050565b7f4e487b71000000000000000000000000000000000000000000000000000000005f52603260045260245ffd5b7f5175697a206973206e6f742061637469766500000000000000000000000000005f82015250565b5f613187601283611fd9565b915061319282613153565b602082019050919050565b5f6020820190508181035f8301526131b48161317b565b9050919050565b7f436572746966696361746520616c7265616479206d696e74656420666f7220745f8201527f686973207175697a000000000000000000000000000000000000000000000000602082015250565b5f613215602883611fd9565b9150613220826131bb565b604082019050919050565b5f6020820190508181035f83015261324281613209565b9050919050565b7f53636f72652062656c6f772070617373696e67207468726573686f6c640000005f82015250565b5f61327d601d83611fd9565b915061328882613249565b602082019050919050565b5f6020820190508181035f8301526132aa81613271565b9050919050565b5f8160601b9050919050565b5f6132c7826132b1565b9050919050565b5f6132d8826132bd565b9050919050565b6132f06132eb826120a0565b6132ce565b82525050565b5f819050919050565b61331061330b826120db565b6132f6565b82525050565b5f8160f81b9050919050565b5f61332c82613316565b9050919050565b61334461333f8261223a565b613322565b82525050565b5f61335582866132df565b60148201915061336582856132ff565b6020820191506133758284613333565b600182019150819050949350505050565b5f81905092915050565b7f19457468657265756d205369676e6564204d6573736167653a0a3332000000005f82015250565b5f6133c4601c83613386565b91506133cf82613390565b601c82019050919050565b5f819050919050565b5f819050919050565b6133fd6133f8826133da565b6133e3565b82525050565b5f61340d826133b8565b915061341982846133ec565b60208201915081905092915050565b7f496e76616c696420697373756572207369676e617475726500000000000000005f82015250565b5f61345c601883611fd9565b915061346782613428565b602082019050919050565b5f6020820190508181035f83015261348981613450565b9050919050565b5f815461349c81612a45565b6134a68186611fd9565b9450600182165f81146134c057600181146134d657613508565b60ff198316865281151560200286019350613508565b6134df85612e14565b5f5b83811015613500578154818901526001820191506020810190506134e1565b808801955050505b50505092915050565b5f6060820190506135245f830186612334565b81810360208301526135368185613490565b905061354560408301846121b1565b949350505050565b7f496e76616c6964207369676e6174757265206c656e67746800000000000000005f82015250565b5f613581601883611fd9565b915061358c8261354d565b602082019050919050565b5f6020820190508181035f8301526135ae81613575565b9050919050565b5f6135bf8261223a565b91506135ca8361223a565b9250828201905060ff8111156135e3576135e2612d73565b5b92915050565b6135f2816133da565b82525050565b5f60808201905061360b5f8301876135e9565b6136186020830186612334565b61362560408301856135e9565b61363260608301846135e9565b9594505050505056fea2646970667358221220d4a2615dbe8b50b4445f6fe3821f6abbd3192f4d9ceb4ca9520efe697f6c304d64736f6c63430008140033",
  "linkReferences": {},
  "deployedLinkReferences": {},
  "immutableReferences": {},
  "inputSourceName": "project/contracts/SkillStamp.sol",
  "buildInfoId": "solc-0_8_20-05441f3d70f75e332689dc75a8d20a5cdbdf99a7"
}